{
  "_format": "hh-sol-artifact-1",
  "contractName": "SimpleStorage",
  "sourceName": "contracts/SimpleStorage.sol",
  "abi": [
    {
      "anonymous": false,
      "inputs": [
        {
          "indexed": false,
          "internalType": "uint256",
          "name": "newValue",
          "type": "uint256"
        },
        {
          "indexed": false,
          "internalType": "address",
          "name": "changedBy",
          "type": "address"
        }
      ],
      "name": "ValueChanged",
      "type": "event"
    },
    {
      "inputs": [],
      "name": "get",
      "outputs": [
        {
          "internalType": "uint256",
          "name": "",
          "type": "uint256"
        }
      ],
      "stateMutability": "view",
      "type": "function"
    },
    {
      "inputs": [],
      "name": "increment",
      "outputs": [],
      "stateMutability": "nonpayable",
      "type": "function"
    },
    {
      "inputs": [],
      "name": "reset",
      "outputs": [],
      "stateMutability": "nonpayable",
      "type": "function"
    },
    {
      "inputs": [
        {
          "internalType": "uint256",
          "name": "x",
          "type": "uint256"
        }
      ],
      "name": "set",
      "outputs": [],
      "stateMutability": "nonpayable",
      "type": "function"
    }
  ],
  "bytecode": "0x6080604052348015600f57600080fd5b506103878061001f6000396000f3fe608060405234801561001057600080fd5b506004361061004c5760003560e01c806360fe47b1146100515780636d4ce63c1461006d578063d09de08a1461008b578063d826f88f14610095575b600080fd5b61006b600480360381019061006691906101bf565b61009f565b005b6100756100e2565b60405161008291906101fb565b60405180910390f35b6100936100eb565b005b61009d610141565b005b806000819055507fc53a6612a7428e1fc89cb87169d69d64eaefe94f5b45d43f80f1ad9d7065d2c881336040516100d7929190610257565b60405180910390a150565b60008054905090565b60016000808282546100fd91906102af565b925050819055507fc53a6612a7428e1fc89cb87169d69d64eaefe94f5b45d43f80f1ad9d7065d2c860005433604051610137929190610257565b60405180910390a1565b600080819055507fc53a6612a7428e1fc89cb87169d69d64eaefe94f5b45d43f80f1ad9d7065d2c860003360405161017a929190610328565b60405180910390a1565b600080fd5b6000819050919050565b61019c81610189565b81146101a757600080fd5b50565b6000813590506101b981610193565b92915050565b6000602082840312156101d5576101d4610184565b5b60006101e3848285016101aa565b91505092915050565b6101f581610189565b82525050565b600060208201905061021060008301846101ec565b92915050565b600073ffffffffffffffffffffffffffffffffffffffff82169050919050565b600061024182610216565b9050919050565b61025181610236565b82525050565b600060408201905061026c60008301856101ec565b6102796020830184610248565b9392505050565b7f4e487b7100000000000000000000000000000000000000000000000000000000600052601160045260246000fd5b60006102ba82610189565b91506102c583610189565b92508282019050808211156102dd576102dc610280565b5b92915050565b6000819050919050565b6000819050919050565b600061031261030d610308846102e3565b6102ed565b610189565b9050919050565b610322816102f7565b82525050565b600060408201905061033d6000830185610319565b61034a6020830184610248565b939250505056fea26469706673582212204009e2549f5a0b49ffe9ef310c54e09fca6e944e1c948e8b2e0afaa3967cfeff64736f6c634300081c0033",
  "linkReferences": {},
  "deployedLinkReferences": {}
}